:100000000C945E000C9473000C9473000C947300B9
:100010000C9473000C9473000C9473000C94730094
:100020000C9473000C9473000C9473000C94730084
:100030000C9473000C9473000C9473000C94730074
:100040000C9473000C9473000C9473000C94730064
:100050000C9473000C9473000C9473000C94730054
:100060000C9473000C9473004C696E652032206C04
:100070006F6E676572207468616E2031342063682A
:100080006172616374657273004C696E6520312022
:100090006C6F6E676572207468616E203134206306
:1000A0006861726163746572730A0007081314143F
:1000B00013080700100808080810000011241FBECC
:1000C000CFEFD4E0DEBFCDBF11E0A0E0B1E0ECE1C6
:1000D000F5E002C005900D92AA32B107D9F70E944F
:1000E00044010C948C020C9400005F9A00C05F984D
:1000F00008951F93CF93DF931F92CDB7DEB766238A
:1001000011F05D9A01C05D985E9897B19F6097B9B4
:1001100018B1107F982F92959F70912B98B9898371
:100120000E94750089818F70812B88B90E947500AB
:100130001F6018B90F90DF91CF911F9108955D98BE
:100140005E9A87B1807F87B95F9A00C086B15F9859
:1001500000C05F9A00C096B19F708295807F5F98C3
:10016000892B08950E949F0087FDFCCF84E090E0DA
:100170000197F1F70C949F00CF93C82F0E94B20013
:1001800060E08C2FCF910C947900CF93C82F0E9400
:10019000B20061E08C2FCF910C947900611102C004
:1001A000805801C080540C94BC000E94B20090E0C2
:1001B000089581E00C94BC0082E00C94BC00CF93C5
:1001C000C82F0E94B200CA3049F4803410F480E491
:1001D00001C080E08058CF910C94BC0061E08C2F6E
:1001E000CF910C947900CF93DF93EC018991882310
:1001F00019F00E94DF00FACFDF91CF910895CF93DD
:10020000DF93FC018491EF012196882321F00E9465
:10021000DF00FE01F7CFDF91CF910895CF93C82F74
:1002200097B19F6097B9559A569A579AE0E0FDE7C3
:100230003197F1F7419A409A0E947500E0E0F7E2A9
:100240003197F1F70E947500E0E8F0E03197F1F79F
:100250000E947500E0E8F0E03197F1F740980E94C5
:100260007500E0E8F0E03197F1F788E20E94BC0009
:1002700088E00E94BC000E94D90086E00E94BC0079
:100280008C2FCF910C94BC00CF93DF93CDB7DEB70A
:1002900027970FB6F894DEBF0FBECDBF52985A9A7B
:1002A000209A559A569A579A8BB18F718BB9389A72
:1002B000399A3A9A3B9A81E085B92FE38DE093E031
:1002C000215080409040E1F700C0000015B8EFE3F6
:1002D000FDE023E0E150F0402040E1F700C00000E5
:1002E00081E085B98FE39DE0E3E081509040E040FC
:1002F000E1F700C0000015B8FFE32DE083E0F15006
:1003000020408040E1F700C0000081E085B99FE314
:10031000EDE0F3E09150E040F040E1F700C0000074
:1003200015B82FE38DE093E0215080409040E1F735
:1003300000C000008CE00E940E0181E085B9EFE36F
:10034000FDE023E0E150F0402040E1F700C0000074
:1003500015B88FE39DE0E3E081509040E040E1F785
:1003600000C000000E94D90080E091E00E94F300EC
:10037000FFE32DE083E0F15020408040E1F700C032
:10038000000081E191E00E94F3009FE3EDE0F3E0E3
:100390009150E040F040E1F700C0000061E087E0EC
:1003A0000E94CE008AE30E94DF008EE00E94BC0023
:1003B00088E191E00E94F3002FE38DE093E021506B
:1003C00080409040E1F700C000000E94D90089E819
:1003D00090E00E94FF00EFE3FDE023E0E150F040F9
:1003E0002040E1F700C0000088E690E00E94FF0096
:1003F0008FE39DE0E3E081509040E040E1F700C0F2
:10040000000088E10E94BC00FFE32DE083E0F15092
:1004100020408040E1F700C000008CE00E94BC005A
:100420000E94D9009FE3EDE0F3E09150E040F040FE
:10043000E1F700C000004AE0BE016F5F7F4F86E831
:1004400090E00E945702CE0101960E94F3000E94A4
:10045000D9008EE191E00E94F30080E40E94BC008C
:100460000BEA10E0F80184910E94C5000F5F1F4F56
:10047000F0E00B3B1F07B1F72FE38DE093E0215035
:1004800080409040E1F700C0000061E080E00E9401
:10049000CE0080E00E94DF0081E00E94DF00EFE3F9
:1004A000FDE023E0E150F0402040E1F759CFBB27C9
:1004B0004A3031F4992322F4BDE2909581959F4F03
:1004C0000C946302BB27FB015527AA27880F991FAD
:1004D000AA1FA41710F0A41B83955051B9F7A05D73
:1004E000AA3308F0A95DA193009779F7B111B193F0
:1004F0001192CB010C947C02DC01FC01672F7191FD
:100500007723E1F7329704C07C916D9370836291F9
:0C051000AE17BF07C8F30895F894FFCFA2
:10051C004C43442054657374204C696E6520310A39
:10052C00004C696E652032004375724F6E00436F4C
:0A053C00707972696768743A200054
:00000001FF
