:100000000C945E000C9473000C9473000C947300B9
:100010000C9473000C9473000C9473000C94730094
:100020000C9473000C9473000C9473000C94730084
:100030000C9473000C9473000C9473000C94730074
:100040000C9473000C9473000C9473000C94730064
:100050000C9473000C9473000C9473000C94730054
:100060000C9473000C9473004C696E652032206C04
:100070006F6E676572207468616E2031342063682A
:100080006172616374657273004C696E6520312022
:100090006C6F6E676572207468616E203134206306
:1000A0006861726163746572730A0007081314143F
:1000B00013080700100808080810000011241FBECC
:1000C000CFEFD4E0DEBFCDBF11E0A0E0B1E0E2EAC7
:1000D000F4E002C005900D92AA32B107D9F70E9450
:1000E0004C010C944F020C94000089B199B1892302
:1000F00082FDFBCF4A9BFECF08955E9A00C05E98BA
:1001000008951F93CF93DF931F92CDB7DEB7662379
:1001100011F05F9A01C05F985D9897B19F6097B9A1
:1001200018B1107F982F92959F70912B98B9898361
:100130000E947D0089818F70812B88B90E947D008B
:100140001F6018B90F90DF91CF911F9108955F98AC
:100150005D9A87B1807F87B95E9A00C086B15E984C
:1001600000C05E9A00C096B19F708295807F5E98B5
:10017000892B08950E94A70087FDFCCF84E090E0C2
:100180000197F1F70C94A700CF93C82F0E94BA00F3
:1001900060E08C2FCF910C948100CF93C82F0E94E8
:1001A000BA0061E08C2FCF910C948100611102C0E4
:1001B000805801C080540C94C4000E94BA0090E0A2
:1001C000089581E00C94C40082E00C94C400CF93A5
:1001D000C82F0E94BA00CA3049F4803410F480E479
:1001E00001C080E08058CF910C94C40061E08C2F56
:1001F000CF910C948100CF93DF93EC0189918823F8
:1002000019F00E94E700FACFDF91CF910895CF93C4
:10021000DF93FC018491EF012196882321F00E9455
:10022000E700FE01F7CFDF91CF910895CF93C82F5C
:1002300097B19F6097B9579A559A569AE0E0FDE7B3
:100240003197F1F7419A409A0E947D00E0E0F7E291
:100250003197F1F70E947D00E0E8F0E03197F1F787
:100260000E947D00E0E8F0E03197F1F740980E94AD
:100270007D00E0E8F0E03197F1F788E20E94C400E9
:1002800088E00E94C4000E94E10086E00E94C40051
:100290008C2FCF910C94C400CF93DF93CDB7DEB7F2
:1002A00027970FB6F894DEBF0FBECDBF52985A9A6B
:1002B000209A559A569A579A8BB18F718BB9389A62
:1002C000399A3A9A3B9A81E085B92FE38DE093E021
:1002D000215080409040E1F700C0000015B8EFE3E6
:1002E000FDE023E0E150F0402040E1F700C00000D5
:1002F00081E085B98FE39DE0E3E081509040E040EC
:10030000E1F700C0000015B8FFE32DE083E0F150F5
:1003100020408040E1F700C0000081E085B99FE304
:10032000EDE0F3E09150E040F040E1F700C0000064
:1003300015B82FE38DE093E0215080409040E1F725
:1003400000C000008CE00E94160181E085B9EFE357
:10035000FDE023E0E150F0402040E1F700C0000064
:1003600015B88FE39DE0E3E081509040E040E1F775
:1003700000C000000E94E10080E091E00E94FB00CC
:1003800081E191E00E94FB0061E087E00E94D600DD
:100390008AE30E94E7000E9475008EE00E94C4007C
:1003A00088E191E00E94FB000E9475000E94E1003C
:1003B00089E890E00E94070188E690E00E9407012A
:1003C00088E10E94C4000E9475008CE00E94C40075
:1003D0000E94E1004AE0BE016F5F7F4F86E890E037
:1003E0000E941A02CE0101960E94FB000E94750035
:1003F0000E94E1008EE191E00E94FB0080E40E94F7
:10040000C4000BEA10E0F80184910E94CD000F5F58
:100410001F4FF0E00B3B1F07B1F761E080E00E9447
:10042000D60080E00E94E70081E00E94E7000E9481
:100430007500A0CFBB274A3031F4992322F4BDE2E6
:10044000909581959F4F0C942602BB27FB01552761
:10045000AA27880F991FAA1FA41710F0A41B839521
:100460005051B9F7A05DAA3308F0A95DA193009798
:1004700079F7B111B1931192CB010C943F02DC01D9
:10048000FC01672F71917723E1F7329704C07C91CB
:100490006D9370836291AE17BF07C8F30895F89407
:0204A000FFCF8C
:1004A2004C43442054657374204C696E6520310AB4
:1004B200004C696E652032004375724F6E00436FC7
:0A04C200707972696768743A2000CF
:00000001FF
