:100000000C945E000C9473000C9473000C947300B9
:100010000C9473000C9473000C9473000C94730094
:100020000C9473000C9473000C9473000C94730084
:100030000C9473000C9473000C9473000C94730074
:100040000C9473000C9473000C9473000C94730064
:100050000C9473000C9473000C9473000C94730054
:100060000C9473000C9473004C696E652032206C04
:100070006F6E676572207468616E2031342063682A
:100080006172616374657273004C696E6520312022
:100090006C6F6E676572207468616E203134206306
:1000A0006861726163746572730A0007081314143F
:1000B00013080700100808080810000011241FBECC
:1000C000CFEFD4E0DEBFCDBF11E0A0E0B1E0E2E2CF
:1000D000F4E002C005900D92AA32B107D9F70E9450
:1000E0005A010C940F020C94000089B199B1892334
:1000F00082FDFBCF4A9BFECF0895469A00C04698EA
:1001000008951F93CF93DF931F92CDB7DEB7662379
:1001100011F0449A01C04498459897B19F6097B9EF
:1001200018B1107F982F92959F70912B98B9898361
:100130000E947D0089818F70812B88B90E947D008B
:100140001F6018B90F90DF91CF911F9108954498C7
:10015000459A87B1807F87B9469A00C086B1469894
:1001600000C0469A00C096B19F708295807F4698E5
:10017000892B08950E94A70087FDFCCF00C00C9436
:10018000A700CF93C82F0E94BA0060E08C2FCF91B8
:100190000C948100CF93C82F0E94BA0061E08C2F8D
:1001A000CF910C948100611102C0805809C0613068
:1001B00011F4805405C0623011F48C5601C08C5289
:1001C0000C94C1000E94BA0090E0089581E00C9464
:1001D000C10082E00C94C100CF93C82F0E94BA00E6
:1001E000982FCA30A1F4843148F080EC890F843113
:1001F00038F094519C3230F484E505C080E403C0AB
:1002000084E101C080E08058CF910C94C10061E08E
:100210008C2FCF910C948100CF93DF93EC018991C7
:10022000882319F00E94EC00FACFDF91CF91089556
:10023000CF93DF93FC018491EF012196882321F075
:100240000E94EC00FE01F7CFDF91CF910895CF938C
:10025000C82F97B19F6797B9E0EAFFE03197F1F7B0
:10026000419A409A0E947D00E0EEF4E03197F1F768
:100270000E947D00E0E1F0E03197F1F70E947D00FF
:10028000E0E1F0E03197F1F740980E947D00E0E175
:10029000F0E03197F1F788E20E94C10088E00E9407
:1002A000C1000E94E60086E00E94C1008C2FCF9121
:1002B0000C94C100CF93DF93CDB7DEB727970FB66D
:1002C000F894DEBF0FBECDBF52985A9A8CE00E94C0
:1002D00027010E94E60080E091E00E940C0181E18C
:1002E00091E00E940C0161E087E00E94D3008AE364
:1002F0000E94EC000E9475008EE00E94C10088E11F
:1003000091E00E940C010E9475000E94E60089E8BD
:1003100090E00E94180188E690E00E94180188E1B0
:100320000E94C1000E9475008CE00E94C1000E94E2
:10033000E6004AE050E0BE016F5F7F4F86E890E044
:100340000E94CA01CE0101960E940C010E94750014
:100350000E94E6008EE191E00E940C0180E40E9480
:10036000C1000BEA10E0F80184910E94CA000F5FFF
:100370001F4FF0E00B3B1F07B1F761E080E00E94E8
:10038000D30080E00E94EC0081E00E94EC000E941B
:1003900075009FCFFB019F01E8944230C4F04532C5
:1003A000B4F44A3029F497FB1EF4909581959F4F41
:1003B000642F77270E94FB01805D8A330CF0895DF2
:1003C0008193CB010097A1F716F45DE2519310825F
:1003D000C9010C94EB01DC01FC01672F71917723BB
:1003E000E1F7329704C07C916D9370836291AE17F0
:1003F000BF07C8F30895AA1BBB1B51E107C0AA1F82
:10040000BB1FA617B70710F0A61BB70B881F991FB5
:100410005A95A9F780959095BC01CD010895F8945F
:02042000FFCF0C
:100422004C43442054657374204C696E6520310A34
:10043200004C696E652032004375724F6E00436F47
:0A044200707972696768743A20004F
:00000001FF
