:100000000C9434000C9449000C9449000C94490061
:100010000C9449000C9449000C9449000C9449003C
:100020000C9449000C9449000C9449000C9449002C
:100030000C9449000C9449000C9449000C9449001C
:100040000C9449000C9449000C9449000C9449000C
:100050000C9449000C9449000C9449000C944900FC
:100060000C9449000C94490011241FBECFEFD4E03A
:10007000DEBFCDBF11E0A0E0B1E0E6E3F4E002C0F6
:1000800005900D92AA32B107D9F70E94AD000C94E9
:1000900019020C940000CF93DF93C8E0D0E088E110
:1000A0000E94700187E893E10197F1F700C000001A
:1000B00021972097A1F7DF91CF910895CF93DF93F8
:1000C000C8E0D0E08CE10E94700187E893E10197DD
:1000D000F1F700C0000021972097A1F7DF91CF91A1
:1000E0000895569A87BD84B5806884BD84B58360C1
:1000F00084BD85B5826085BD0895569A17BC84B5C8
:10010000807884BD84B5837084BD85B5827085BDDB
:100110000895CF93DF93C0E0D0E0CE010E9471003C
:1001200087E893E10197F1F700C000002896C03FEF
:10013000D10599F7C8EFD0E0CE010E94710087E8A1
:1001400093E10197F1F700C0000028972097A1F7ED
:100150000E947D00DF91CF910895CF93DF9300D06F
:10016000CDB7DEB7209A0E9489008CE00E94AD01D5
:1001700060E083E00E947A0180E091E00E949D01AE
:1001800061E081E00E947A0183E091E00E949D019C
:100190000E948900FF24F3946894DD24D4F8E12CB4
:1001A000F5B80E94840115B889E091E00E949D0194
:1001B00083E294EF0197F1F700C0000083E191E042
:1001C0000E949D0183E294EF0197F1F700C00000C7
:1001D0000E9489000E944B000E945E000E945E0007
:1001E0000E944B000E9489000E9484016F2D8F2D78
:1001F0000E947A018CE191E00E949D0160E08F2DC8
:100200000E947A0182E291E00E949D010D2D1E2D37
:1002100060E086E00E947A01015011094AE0BE01C7
:100220006F5F7F4FC8010E94E401CE0101960E94DA
:100230009D0187E291E00E949D0183E294EF019786
:10024000F1F700C000000115110511F70E948900A7
:10025000A7CF5F9A00C05F980895CF93DF93D82F00
:10026000662311F05D9A01C05D985E9887B18F603A
:1002700087B9C8B1C07F8D2F82958F708C2B88B9BC
:100280000E942901DF70DC2BD8B90E942901CF60C0
:10029000C8B9DF91CF910895882311F05D9A01C00C
:1002A0005D985E9A87B1807F87B95F9A00C096B1EA
:1002B0005F9800C05F9A00C086B19295907F8F7062
:1002C0005F98892B089580E00E944C018823DCF31D
:1002D00084E090E00197F1F780E00E944C010895DE
:1002E000CF93C82F0E94630160E08C2F0E942D01E4
:1002F000CF910895611104C080580E947001089543
:1003000080540E947001089581E00E947001089558
:10031000CF93C82F0E946301CA3049F4803410F48F
:1003200080E401C080E080580E94700104C061E058
:100330008C2F0E942D01CF910895CF93DF93EC0174
:100340002196FC018081882329F00E9488018991EF
:100350008111FBCFDF91CF910895CF93C82F87B143
:100360008F6087B9559A569A579AE0E0FDE7319722
:10037000F1F7419A409A0E942901E0E0F7E23197B3
:10038000F1F70E942901E0E8F0E03197F1F70E94CF
:100390002901E0E8F0E03197F1F740980E94290147
:1003A000E0E8F0E03197F1F788E20E94700188E020
:1003B0000E9470010E94840186E00E9470018C2FCF
:1003C0000E947001CF910895BB274A3031F49923E0
:1003D00022F4BDE2909581959F4F0C94F001BB27CC
:1003E000FB015527AA27880F991FAA1FA41710F0F1
:1003F000A41B83955051B9F7A05DAA3308F0A95DFD
:10040000A193009779F7B111B1931192CB010C949C
:100410000902DC01FC01672F71917723E1F7329724
:1004200004C07C916D9370836291AE17BF07C8F3CF
:060430000895F894FFCFCF
:10043600627900526F6E6579004156526D313638D9
:10044600500A0041746D656C5336320046696E6120
:0A0456006C0044656D6F002000008B
:00000001FF
