:100000000C9434000C9449000C9449000C94490061
:100010000C9449000C9449000C9449000C9449003C
:100020000C9449000C9449000C9449000C9449002C
:100030000C9449000C9449000C9449000C9449001C
:100040000C9449000C9449000C9449000C9449000C
:100050000C9449000C9449000C9449000C944900FC
:100060000C9449000C94490011241FBECFEFD4E03A
:10007000DEBFCDBF11E0A0E0B1E0E8E2F1E002C0F8
:1000800005900D92AC30B107D9F70E944B000C944B
:1000900092000C94000082E08AB98FEF84B90E942C
:1000A0005C0080E091E00E947D000E947500C82FF6
:1000B0000E946D00C5B9F9CF1092C5008CE0809305
:1000C000C400E0ECF0E080818260808388E180936E
:1000D000C10086E08093C2000895E0ECF0E09081DA
:1000E00095FFFDCF8093C6000895E0ECF0E080819D
:1000F0008823ECF78091C60008951F93CF93DF9378
:10010000EC018881882351F010E00E946D001F5F90
:10011000FE01E10FF11D80818111F7CFDF91CF91B9
:080120001F910895F894FFCF30
:0C0128004F6C61204D756E646F0D0A0075
:00000001FF
